{
  "_format": "hh-sol-artifact-1",
  "contractName": "Donate",
  "sourceName": "contracts/donate/Donate.sol",
  "abi": [
    {
      "inputs": [
        {
          "internalType": "address",
          "name": "caller",
          "type": "address"
        }
      ],
      "name": "NotService",
      "type": "error"
    },
    {
      "anonymous": false,
      "inputs": [
        {
          "indexed": true,
          "internalType": "address",
          "name": "token",
          "type": "address"
        }
      ],
      "name": "AddAnalyticToken",
      "type": "event"
    },
    {
      "anonymous": false,
      "inputs": [
        {
          "indexed": true,
          "internalType": "bytes32",
          "name": "charityId",
          "type": "bytes32"
        },
        {
          "indexed": false,
          "internalType": "string",
          "name": "charityName",
          "type": "string"
        },
        {
          "indexed": true,
          "internalType": "address",
          "name": "charityAddress",
          "type": "address"
        }
      ],
      "name": "AddKnownCharity",
      "type": "event"
    },
    {
      "anonymous": false,
      "inputs": [
        {
          "indexed": false,
          "internalType": "address",
          "name": "previousAdmin",
          "type": "address"
        },
        {
          "indexed": false,
          "internalType": "address",
          "name": "newAdmin",
          "type": "address"
        }
      ],
      "name": "AdminChanged",
      "type": "event"
    },
    {
      "anonymous": false,
      "inputs": [
        {
          "indexed": true,
          "internalType": "address",
          "name": "beacon",
          "type": "address"
        }
      ],
      "name": "BeaconUpgraded",
      "type": "event"
    },
    {
      "anonymous": false,
      "inputs": [
        {
          "indexed": true,
          "internalType": "address",
          "name": "user",
          "type": "address"
        },
        {
          "indexed": true,
          "internalType": "address",
          "name": "token",
          "type": "address"
        },
        {
          "indexed": true,
          "internalType": "bytes32",
          "name": "charityId",
          "type": "bytes32"
        },
        {
          "indexed": false,
          "internalType": "string",
          "name": "charityName",
          "type": "string"
        },
        {
          "indexed": false,
          "internalType": "uint256",
          "name": "amount",
          "type": "uint256"
        }
      ],
      "name": "Donation",
      "type": "event"
    },
    {
      "anonymous": false,
      "inputs": [
        {
          "indexed": true,
          "internalType": "address",
          "name": "user",
          "type": "address"
        },
        {
          "indexed": true,
          "internalType": "address",
          "name": "token",
          "type": "address"
        },
        {
          "indexed": true,
          "internalType": "bytes32",
          "name": "charityId",
          "type": "bytes32"
        },
        {
          "indexed": false,
          "internalType": "uint256",
          "name": "amount",
          "type": "uint256"
        },
        {
          "components": [
            {
              "internalType": "string",
              "name": "sourceChain",
              "type": "string"
            },
            {
              "internalType": "bytes",
              "name": "sourceAddress",
              "type": "bytes"
            }
          ],
          "indexed": false,
          "internalType": "struct Donate.CrossChainData",
          "name": "data",
          "type": "tuple"
        }
      ],
      "name": "DonationCrosschain",
      "type": "event"
    },
    {
      "anonymous": false,
      "inputs": [
        {
          "indexed": false,
          "internalType": "uint8",
          "name": "version",
          "type": "uint8"
        }
      ],
      "name": "Initialized",
      "type": "event"
    },
    {
      "anonymous": false,
      "inputs": [
        {
          "indexed": true,
          "internalType": "address",
          "name": "previousOwner",
          "type": "address"
        },
        {
          "indexed": true,
          "internalType": "address",
          "name": "newOwner",
          "type": "address"
        }
      ],
      "name": "OwnershipTransferred",
      "type": "event"
    },
    {
      "anonymous": false,
      "inputs": [
        {
          "indexed": true,
          "internalType": "address",
          "name": "token",
          "type": "address"
        }
      ],
      "name": "RemoveAnalyticToken",
      "type": "event"
    },
    {
      "anonymous": false,
      "inputs": [
        {
          "indexed": true,
          "internalType": "bytes32",
          "name": "charityId",
          "type": "bytes32"
        },
        {
          "indexed": false,
          "internalType": "string",
          "name": "charityName",
          "type": "string"
        },
        {
          "indexed": true,
          "internalType": "address",
          "name": "charityAddress",
          "type": "address"
        }
      ],
      "name": "RemoveKnownCharity",
      "type": "event"
    },
    {
      "anonymous": false,
      "inputs": [
        {
          "indexed": true,
          "internalType": "address",
          "name": "implementation",
          "type": "address"
        }
      ],
      "name": "Upgraded",
      "type": "event"
    },
    {
      "inputs": [
        {
          "internalType": "address",
          "name": "tokenAddress",
          "type": "address"
        }
      ],
      "name": "addAnalyticsToken",
      "outputs": [],
      "stateMutability": "nonpayable",
      "type": "function"
    },
    {
      "inputs": [
        {
          "internalType": "string",
          "name": "charityName",
          "type": "string"
        },
        {
          "internalType": "address",
          "name": "charityAddress",
          "type": "address"
        }
      ],
      "name": "addKnownCharity",
      "outputs": [],
      "stateMutability": "nonpayable",
      "type": "function"
    },
    {
      "inputs": [
        {
          "internalType": "address",
          "name": "",
          "type": "address"
        },
        {
          "internalType": "uint256",
          "name": "",
          "type": "uint256"
        }
      ],
      "name": "addressAnalytics",
      "outputs": [
        {
          "internalType": "address",
          "name": "token",
          "type": "address"
        },
        {
          "internalType": "uint256",
          "name": "amount",
          "type": "uint256"
        }
      ],
      "stateMutability": "view",
      "type": "function"
    },
    {
      "inputs": [
        {
          "internalType": "address",
          "name": "",
          "type": "address"
        }
      ],
      "name": "analyticsTokens",
      "outputs": [
        {
          "internalType": "bool",
          "name": "",
          "type": "bool"
        }
      ],
      "stateMutability": "view",
      "type": "function"
    },
    {
      "inputs": [
        {
          "internalType": "string",
          "name": "charityName",
          "type": "string"
        },
        {
          "internalType": "address",
          "name": "token",
          "type": "address"
        },
        {
          "internalType": "uint256",
          "name": "amount",
          "type": "uint256"
        }
      ],
      "name": "donate",
      "outputs": [],
      "stateMutability": "payable",
      "type": "function"
    },
    {
      "inputs": [
        {
          "internalType": "bytes32",
          "name": "commandId",
          "type": "bytes32"
        },
        {
          "internalType": "string",
          "name": "sourceChain",
          "type": "string"
        },
        {
          "internalType": "bytes",
          "name": "sourceAddress",
          "type": "bytes"
        },
        {
          "internalType": "bytes",
          "name": "data",
          "type": "bytes"
        },
        {
          "internalType": "bytes32",
          "name": "tokenId",
          "type": "bytes32"
        },
        {
          "internalType": "address",
          "name": "token",
          "type": "address"
        },
        {
          "internalType": "uint256",
          "name": "amount",
          "type": "uint256"
        }
      ],
      "name": "executeWithInterchainToken",
      "outputs": [
        {
          "internalType": "bytes32",
          "name": "",
          "type": "bytes32"
        }
      ],
      "stateMutability": "nonpayable",
      "type": "function"
    },
    {
      "inputs": [
        {
          "internalType": "address",
          "name": "_owner",
          "type": "address"
        },
        {
          "internalType": "address",
          "name": "_interchainTokenService",
          "type": "address"
        }
      ],
      "name": "initialize",
      "outputs": [],
      "stateMutability": "nonpayable",
      "type": "function"
    },
    {
      "inputs": [],
      "name": "interchainTokenService",
      "outputs": [
        {
          "internalType": "address",
          "name": "",
          "type": "address"
        }
      ],
      "stateMutability": "view",
      "type": "function"
    },
    {
      "inputs": [
        {
          "internalType": "bytes32",
          "name": "",
          "type": "bytes32"
        }
      ],
      "name": "knownCharities",
      "outputs": [
        {
          "internalType": "address",
          "name": "",
          "type": "address"
        }
      ],
      "stateMutability": "view",
      "type": "function"
    },
    {
      "inputs": [],
      "name": "owner",
      "outputs": [
        {
          "internalType": "address",
          "name": "",
          "type": "address"
        }
      ],
      "stateMutability": "view",
      "type": "function"
    },
    {
      "inputs": [],
      "name": "proxiableUUID",
      "outputs": [
        {
          "internalType": "bytes32",
          "name": "",
          "type": "bytes32"
        }
      ],
      "stateMutability": "view",
      "type": "function"
    },
    {
      "inputs": [
        {
          "internalType": "address",
          "name": "tokenAddress",
          "type": "address"
        }
      ],
      "name": "removeAnalyticToken",
      "outputs": [],
      "stateMutability": "nonpayable",
      "type": "function"
    },
    {
      "inputs": [
        {
          "internalType": "string",
          "name": "charityName",
          "type": "string"
        }
      ],
      "name": "removeKnownCharity",
      "outputs": [],
      "stateMutability": "nonpayable",
      "type": "function"
    },
    {
      "inputs": [],
      "name": "renounceOwnership",
      "outputs": [],
      "stateMutability": "nonpayable",
      "type": "function"
    },
    {
      "inputs": [
        {
          "internalType": "address",
          "name": "newOwner",
          "type": "address"
        }
      ],
      "name": "transferOwnership",
      "outputs": [],
      "stateMutability": "nonpayable",
      "type": "function"
    },
    {
      "inputs": [
        {
          "internalType": "address",
          "name": "newImplementation",
          "type": "address"
        }
      ],
      "name": "upgradeTo",
      "outputs": [],
      "stateMutability": "nonpayable",
      "type": "function"
    },
    {
      "inputs": [
        {
          "internalType": "address",
          "name": "newImplementation",
          "type": "address"
        },
        {
          "internalType": "bytes",
          "name": "data",
          "type": "bytes"
        }
      ],
      "name": "upgradeToAndCall",
      "outputs": [],
      "stateMutability": "payable",
      "type": "function"
    }
  ],
  "bytecode": "0x60a06040523073ffffffffffffffffffffffffffffffffffffffff1660809073ffffffffffffffffffffffffffffffffffffffff1681525034801561004357600080fd5b5060805161338f61007b60003960008181610913015281816109a101528181610b7b01528181610c090152610cb9015261338f6000f3fe6080604052600436106100fe5760003560e01c8063485cc955116100955780635af7319c116100645780635af7319c14610337578063715018a6146103535780638da5cb5b1461036a578063af35eb2714610395578063f2fde38b146103be576100fe565b8063485cc955146102895780634f1ef286146102b257806352d1902d146102ce578063581276d7146102f9576100fe565b8063283b6ff6116100d1578063283b6ff6146101d157806329241502146101fa578063297b5b7d146102375780633659cfe614610260576100fe565b80630411e8171461010357806309c6bed9146101405780630c8bf83e1461016b5780631a7ee1a1146101a8575b600080fd5b34801561010f57600080fd5b5061012a60048036038101906101259190611fa4565b6103e7565b6040516101379190612012565b60405180910390f35b34801561014c57600080fd5b5061015561041a565b6040516101629190612012565b60405180910390f35b34801561017757600080fd5b50610192600480360381019061018d9190612059565b610440565b60405161019f91906120a1565b60405180910390f35b3480156101b457600080fd5b506101cf60048036038101906101ca9190612121565b610460565b005b3480156101dd57600080fd5b506101f860048036038101906101f39190612181565b6105b2565b005b34801561020657600080fd5b50610221600480360381019061021c919061225a565b610720565b60405161022e919061236c565b60405180910390f35b34801561024357600080fd5b5061025e60048036038101906102599190612059565b6107f7565b005b34801561026c57600080fd5b5061028760048036038101906102829190612059565b610911565b005b34801561029557600080fd5b506102b060048036038101906102ab9190612387565b610a99565b005b6102cc60048036038101906102c79190612508565b610b79565b005b3480156102da57600080fd5b506102e3610cb5565b6040516102f0919061236c565b60405180910390f35b34801561030557600080fd5b50610320600480360381019061031b9190612564565b610d6e565b60405161032e9291906125b3565b60405180910390f35b610351600480360381019061034c91906125dc565b610dcf565b005b34801561035f57600080fd5b50610368610f05565b005b34801561037657600080fd5b5061037f610f8d565b60405161038c9190612012565b60405180910390f35b3480156103a157600080fd5b506103bc60048036038101906103b79190612059565b610fb7565b005b3480156103ca57600080fd5b506103e560048036038101906103e09190612059565b6110c8565b005b60ca6020528060005260406000206000915054906101000a900473ffffffffffffffffffffffffffffffffffffffff1681565b60c960009054906101000a900473ffffffffffffffffffffffffffffffffffffffff1681565b60cb6020528060005260406000206000915054906101000a900460ff1681565b6104686111bf565b73ffffffffffffffffffffffffffffffffffffffff16610486610f8d565b73ffffffffffffffffffffffffffffffffffffffff16146104dc576040517f08c379a00000000000000000000000000000000000000000000000000000000081526004016104d3906126ad565b60405180910390fd5b600083836040516020016104f19291906126fd565b6040516020818303038152906040528051906020012090508160ca600083815260200190815260200160002060006101000a81548173ffffffffffffffffffffffffffffffffffffffff021916908373ffffffffffffffffffffffffffffffffffffffff1602179055508173ffffffffffffffffffffffffffffffffffffffff16817fad2236441655f6a12461bedd3bb7499bac50c0fb5a0bec896e2a137191ebb48086866040516105a4929190612743565b60405180910390a350505050565b6105ba6111bf565b73ffffffffffffffffffffffffffffffffffffffff166105d8610f8d565b73ffffffffffffffffffffffffffffffffffffffff161461062e576040517f08c379a0000000000000000000000000000000000000000000000000000000008152600401610625906126ad565b60405180910390fd5b600082826040516020016106439291906126fd565b604051602081830303815290604052805190602001209050600060ca600083815260200190815260200160002060009054906101000a900473ffffffffffffffffffffffffffffffffffffffff16905060ca600083815260200190815260200160002060006101000a81549073ffffffffffffffffffffffffffffffffffffffff02191690558073ffffffffffffffffffffffffffffffffffffffff16827fc25b1b3c32093d4653e0c879f130e3af7a4bffcb39f4ace13701ccfe517d763e8686604051610712929190612743565b60405180910390a350505050565b600060c960009054906101000a900473ffffffffffffffffffffffffffffffffffffffff1673ffffffffffffffffffffffffffffffffffffffff163373ffffffffffffffffffffffffffffffffffffffff16146107b457336040517f0d6c7be90000000000000000000000000000000000000000000000000000000081526004016107ab9190612012565b60405180910390fd5b6107c68b8b8b8b8b8b8b8b8b8b6111c7565b7fe84001f3dedacf7f9ddc370e9f09c26b37473e9e959ffdc4925f6fe33c9877e490509a9950505050505050505050565b6107ff6111bf565b73ffffffffffffffffffffffffffffffffffffffff1661081d610f8d565b73ffffffffffffffffffffffffffffffffffffffff1614610873576040517f08c379a000000000000000000000000000000000000000000000000000000000815260040161086a906126ad565b60405180910390fd5b600160cb60008373ffffffffffffffffffffffffffffffffffffffff1673ffffffffffffffffffffffffffffffffffffffff16815260200190815260200160002060006101000a81548160ff0219169083151502179055508073ffffffffffffffffffffffffffffffffffffffff167fd6ad0009ea015b660e6d74839030f276818cbbe40bfb061b975ff83de0584f1460405160405180910390a250565b7f000000000000000000000000000000000000000000000000000000000000000073ffffffffffffffffffffffffffffffffffffffff163073ffffffffffffffffffffffffffffffffffffffff160361099f576040517f08c379a0000000000000000000000000000000000000000000000000000000008152600401610996906127d9565b60405180910390fd5b7f000000000000000000000000000000000000000000000000000000000000000073ffffffffffffffffffffffffffffffffffffffff166109de611427565b73ffffffffffffffffffffffffffffffffffffffff1614610a34576040517f08c379a0000000000000000000000000000000000000000000000000000000008152600401610a2b9061286b565b60405180910390fd5b610a3d8161147e565b610a9681600067ffffffffffffffff811115610a5c57610a5b6123dd565b5b6040519080825280601f01601f191660200182016040528015610a8e5781602001600182028036833780820191505090505b5060006114fd565b50565b6000610aa5600161166b565b90508015610ac9576001600060016101000a81548160ff0219169083151502179055505b610ad28361175b565b610ada611821565b8160c960006101000a81548173ffffffffffffffffffffffffffffffffffffffff021916908373ffffffffffffffffffffffffffffffffffffffff1602179055508015610b745760008060016101000a81548160ff0219169083151502179055507f7f26b83ff96e1f2b6a682f133852f6798a09c465da95921460cefb38474024986001604051610b6b91906128dd565b60405180910390a15b505050565b7f000000000000000000000000000000000000000000000000000000000000000073ffffffffffffffffffffffffffffffffffffffff163073ffffffffffffffffffffffffffffffffffffffff1603610c07576040517f08c379a0000000000000000000000000000000000000000000000000000000008152600401610bfe906127d9565b60405180910390fd5b7f000000000000000000000000000000000000000000000000000000000000000073ffffffffffffffffffffffffffffffffffffffff16610c46611427565b73ffffffffffffffffffffffffffffffffffffffff1614610c9c576040517f08c379a0000000000000000000000000000000000000000000000000000000008152600401610c939061286b565b60405180910390fd5b610ca58261147e565b610cb1828260016114fd565b5050565b60007f000000000000000000000000000000000000000000000000000000000000000073ffffffffffffffffffffffffffffffffffffffff163073ffffffffffffffffffffffffffffffffffffffff1614610d45576040517f08c379a0000000000000000000000000000000000000000000000000000000008152600401610d3c9061296a565b60405180910390fd5b7f360894a13ba1a3210667c828492db98dca3e2076cc3735a920a3ca505d382bbc60001b905090565b60cc6020528160005260406000208181548110610d8a57600080fd5b9060005260206000209060020201600091509150508060000160009054906101000a900473ffffffffffffffffffffffffffffffffffffffff16908060010154905082565b60008484604051602001610de49291906126fd565b60405160208183030381529060405280519060200120905060003390506000610e0f82848787611872565b90508473ffffffffffffffffffffffffffffffffffffffff166323b872dd8383876040518463ffffffff1660e01b8152600401610e4e9392919061298a565b6020604051808303816000875af1158015610e6d573d6000803e3d6000fd5b505050506040513d601f19601f82011682018060405250810190610e9191906129ed565b50828573ffffffffffffffffffffffffffffffffffffffff168373ffffffffffffffffffffffffffffffffffffffff167fca5afda149ad4e46297779fb9544a89d0ace10d1a7d897eaf27324f2ed1f186e8a8a89604051610ef493929190612a1a565b60405180910390a450505050505050565b610f0d6111bf565b73ffffffffffffffffffffffffffffffffffffffff16610f2b610f8d565b73ffffffffffffffffffffffffffffffffffffffff1614610f81576040517f08c379a0000000000000000000000000000000000000000000000000000000008152600401610f78906126ad565b60405180910390fd5b610f8b600061175b565b565b6000609760009054906101000a900473ffffffffffffffffffffffffffffffffffffffff16905090565b610fbf6111bf565b73ffffffffffffffffffffffffffffffffffffffff16610fdd610f8d565b73ffffffffffffffffffffffffffffffffffffffff1614611033576040517f08c379a000000000000000000000000000000000000000000000000000000000815260040161102a906126ad565b60405180910390fd5b60cb60008273ffffffffffffffffffffffffffffffffffffffff1673ffffffffffffffffffffffffffffffffffffffff16815260200190815260200160002060006101000a81549060ff02191690558073ffffffffffffffffffffffffffffffffffffffff167f7b0cb30b9ee2da91f7f2a60707499d60deb3407e2dfa21153aad5e6fb4f4e34260405160405180910390a250565b6110d06111bf565b73ffffffffffffffffffffffffffffffffffffffff166110ee610f8d565b73ffffffffffffffffffffffffffffffffffffffff1614611144576040517f08c379a000000000000000000000000000000000000000000000000000000000815260040161113b906126ad565b60405180910390fd5b600073ffffffffffffffffffffffffffffffffffffffff168173ffffffffffffffffffffffffffffffffffffffff16036111b3576040517f08c379a00000000000000000000000000000000000000000000000000000000081526004016111aa90612abe565b60405180910390fd5b6111bc8161175b565b50565b600033905090565b6000611221600087878080601f016020809104026020016040519081016040528093929190818152602001838380828437600081840152601f19601f82011690508083019250505050505050611bc790919063ffffffff16565b9050600061127d602088888080601f016020809104026020016040519081016040528093929190818152602001838380828437600081840152601f19601f82011690508083019250505050505050611c2e90919063ffffffff16565b9050600061128d82848787611872565b90508473ffffffffffffffffffffffffffffffffffffffff1663a9059cbb82866040518363ffffffff1660e01b81526004016112ca9291906125b3565b6020604051808303816000875af11580156112e9573d6000803e3d6000fd5b505050506040513d601f19601f8201168201806040525081019061130d91906129ed565b50600060405180604001604052808e8e8080601f016020809104026020016040519081016040528093929190818152602001838380828437600081840152601f19601f8201169050808301925050505050505081526020018c8c8080601f016020809104026020016040519081016040528093929190818152602001838380828437600081840152601f19601f820116905080830192505050505050508152509050838673ffffffffffffffffffffffffffffffffffffffff168473ffffffffffffffffffffffffffffffffffffffff167ffe8715890cc75036816c4fff2a58787e923cdaa5f4078f61868f53e78e769ef9888560405161140f929190612bf6565b60405180910390a45050505050505050505050505050565b60006114557f360894a13ba1a3210667c828492db98dca3e2076cc3735a920a3ca505d382bbc60001b611ca4565b60000160009054906101000a900473ffffffffffffffffffffffffffffffffffffffff16905090565b6114866111bf565b73ffffffffffffffffffffffffffffffffffffffff166114a4610f8d565b73ffffffffffffffffffffffffffffffffffffffff16146114fa576040517f08c379a00000000000000000000000000000000000000000000000000000000081526004016114f1906126ad565b60405180910390fd5b50565b6115297f4910fdfa16fed3260ed0e7147f7cc6da11a60208b5b9406d12a635614ffd914360001b611cae565b60000160009054906101000a900460ff161561154d5761154883611cb8565b611666565b8273ffffffffffffffffffffffffffffffffffffffff166352d1902d6040518163ffffffff1660e01b8152600401602060405180830381865afa9250505080156115b557506040513d601f19601f820116820180604052508101906115b29190612c3b565b60015b6115f4576040517f08c379a00000000000000000000000000000000000000000000000000000000081526004016115eb90612cda565b60405180910390fd5b7f360894a13ba1a3210667c828492db98dca3e2076cc3735a920a3ca505d382bbc60001b8114611659576040517f08c379a000000000000000000000000000000000000000000000000000000000815260040161165090612d6c565b60405180910390fd5b50611665838383611d71565b5b505050565b60008060019054906101000a900460ff16156116e25760018260ff1614801561169a575061169830611d9d565b155b6116d9576040517f08c379a00000000000000000000000000000000000000000000000000000000081526004016116d090612dfe565b60405180910390fd5b60009050611756565b8160ff1660008054906101000a900460ff1660ff1610611737576040517f08c379a000000000000000000000000000000000000000000000000000000000815260040161172e90612dfe565b60405180910390fd5b816000806101000a81548160ff021916908360ff160217905550600190505b919050565b6000609760009054906101000a900473ffffffffffffffffffffffffffffffffffffffff16905081609760006101000a81548173ffffffffffffffffffffffffffffffffffffffff021916908373ffffffffffffffffffffffffffffffffffffffff1602179055508173ffffffffffffffffffffffffffffffffffffffff168173ffffffffffffffffffffffffffffffffffffffff167f8be0079c531659141344cd1fd0a4f28419497f9722a3daafe3b4186f6b6457e060405160405180910390a35050565b600060019054906101000a900460ff16611870576040517f08c379a000000000000000000000000000000000000000000000000000000000815260040161186790612e90565b60405180910390fd5b565b60008060ca600086815260200190815260200160002060009054906101000a900473ffffffffffffffffffffffffffffffffffffffff169050600073ffffffffffffffffffffffffffffffffffffffff168173ffffffffffffffffffffffffffffffffffffffff160361191a576040517f08c379a000000000000000000000000000000000000000000000000000000000815260040161191190612efc565b60405180910390fd5b6000831161195d576040517f08c379a000000000000000000000000000000000000000000000000000000000815260040161195490612f8e565b60405180910390fd5b600073ffffffffffffffffffffffffffffffffffffffff168673ffffffffffffffffffffffffffffffffffffffff16141580156119e3575060cb60008573ffffffffffffffffffffffffffffffffffffffff1673ffffffffffffffffffffffffffffffffffffffff16815260200190815260200160002060009054906101000a900460ff165b15611bbb57600060cc60008873ffffffffffffffffffffffffffffffffffffffff1673ffffffffffffffffffffffffffffffffffffffff16815260200190815260200160002090506000805b8280549050811015611b09578673ffffffffffffffffffffffffffffffffffffffff16838281548110611a6557611a64612fae565b5b906000526020600020906002020160000160009054906101000a900473ffffffffffffffffffffffffffffffffffffffff1673ffffffffffffffffffffffffffffffffffffffff1603611af65785838281548110611ac657611ac5612fae565b5b90600052602060002090600202016001016000828254611ae6919061300c565b9250508190555060019150611b09565b8080611b0190613040565b915050611a2f565b5080611bb8578160405180604001604052808873ffffffffffffffffffffffffffffffffffffffff16815260200187815250908060018154018082558091505060019003906000526020600020906002020160009091909190915060008201518160000160006101000a81548173ffffffffffffffffffffffffffffffffffffffff021916908373ffffffffffffffffffffffffffffffffffffffff1602179055506020820151816001015550505b50505b80915050949350505050565b6000602082611bd6919061300c565b83511015611c19576040517f08c379a0000000000000000000000000000000000000000000000000000000008152600401611c10906130d4565b60405180910390fd5b60008260208501015190508091505092915050565b6000601482611c3d919061300c565b83511015611c80576040517f08c379a0000000000000000000000000000000000000000000000000000000008152600401611c7790613140565b60405180910390fd5b60006c01000000000000000000000000836020860101510490508091505092915050565b6000819050919050565b6000819050919050565b611cc181611d9d565b611d00576040517f08c379a0000000000000000000000000000000000000000000000000000000008152600401611cf7906131d2565b60405180910390fd5b80611d2d7f360894a13ba1a3210667c828492db98dca3e2076cc3735a920a3ca505d382bbc60001b611ca4565b60000160006101000a81548173ffffffffffffffffffffffffffffffffffffffff021916908373ffffffffffffffffffffffffffffffffffffffff16021790555050565b611d7a83611dc0565b600082511180611d875750805b15611d9857611d968383611e0f565b505b505050565b6000808273ffffffffffffffffffffffffffffffffffffffff163b119050919050565b611dc981611cb8565b8073ffffffffffffffffffffffffffffffffffffffff167fbc7cd75a20ee27fd9adebab32041f755214dbc6bffa90cc0225b39da2e5c2d3b60405160405180910390a250565b6060611e1a83611d9d565b611e59576040517f08c379a0000000000000000000000000000000000000000000000000000000008152600401611e5090613264565b60405180910390fd5b6000808473ffffffffffffffffffffffffffffffffffffffff1684604051611e8191906132c0565b600060405180830381855af49150503d8060008114611ebc576040519150601f19603f3d011682016040523d82523d6000602084013e611ec1565b606091505b5091509150611ee9828260405180606001604052806027815260200161333360279139611ef3565b9250505092915050565b60608315611f0357829050611f53565b600083511115611f165782518084602001fd5b816040517f08c379a0000000000000000000000000000000000000000000000000000000008152600401611f4a9190613310565b60405180910390fd5b9392505050565b6000604051905090565b600080fd5b600080fd5b6000819050919050565b611f8181611f6e565b8114611f8c57600080fd5b50565b600081359050611f9e81611f78565b92915050565b600060208284031215611fba57611fb9611f64565b5b6000611fc884828501611f8f565b91505092915050565b600073ffffffffffffffffffffffffffffffffffffffff82169050919050565b6000611ffc82611fd1565b9050919050565b61200c81611ff1565b82525050565b60006020820190506120276000830184612003565b92915050565b61203681611ff1565b811461204157600080fd5b50565b6000813590506120538161202d565b92915050565b60006020828403121561206f5761206e611f64565b5b600061207d84828501612044565b91505092915050565b60008115159050919050565b61209b81612086565b82525050565b60006020820190506120b66000830184612092565b92915050565b600080fd5b600080fd5b600080fd5b60008083601f8401126120e1576120e06120bc565b5b8235905067ffffffffffffffff8111156120fe576120fd6120c1565b5b60208301915083600182028301111561211a576121196120c6565b5b9250929050565b60008060006040848603121561213a57612139611f64565b5b600084013567ffffffffffffffff81111561215857612157611f69565b5b612164868287016120cb565b9350935050602061217786828701612044565b9150509250925092565b6000806020838503121561219857612197611f64565b5b600083013567ffffffffffffffff8111156121b6576121b5611f69565b5b6121c2858286016120cb565b92509250509250929050565b60008083601f8401126121e4576121e36120bc565b5b8235905067ffffffffffffffff811115612201576122006120c1565b5b60208301915083600182028301111561221d5761221c6120c6565b5b9250929050565b6000819050919050565b61223781612224565b811461224257600080fd5b50565b6000813590506122548161222e565b92915050565b60008060008060008060008060008060e08b8d03121561227d5761227c611f64565b5b600061228b8d828e01611f8f565b9a505060208b013567ffffffffffffffff8111156122ac576122ab611f69565b5b6122b88d828e016120cb565b995099505060408b013567ffffffffffffffff8111156122db576122da611f69565b5b6122e78d828e016121ce565b975097505060608b013567ffffffffffffffff81111561230a57612309611f69565b5b6123168d828e016121ce565b955095505060806123298d828e01611f8f565b93505060a061233a8d828e01612044565b92505060c061234b8d828e01612245565b9150509295989b9194979a5092959850565b61236681611f6e565b82525050565b6000602082019050612381600083018461235d565b92915050565b6000806040838503121561239e5761239d611f64565b5b60006123ac85828601612044565b92505060206123bd85828601612044565b9150509250929050565b600080fd5b6000601f19601f8301169050919050565b7f4e487b7100000000000000000000000000000000000000000000000000000000600052604160045260246000fd5b612415826123cc565b810181811067ffffffffffffffff82111715612434576124336123dd565b5b80604052505050565b6000612447611f5a565b9050612453828261240c565b919050565b600067ffffffffffffffff821115612473576124726123dd565b5b61247c826123cc565b9050602081019050919050565b82818337600083830152505050565b60006124ab6124a684612458565b61243d565b9050828152602081018484840111156124c7576124c66123c7565b5b6124d2848285612489565b509392505050565b600082601f8301126124ef576124ee6120bc565b5b81356124ff848260208601612498565b91505092915050565b6000806040838503121561251f5761251e611f64565b5b600061252d85828601612044565b925050602083013567ffffffffffffffff81111561254e5761254d611f69565b5b61255a858286016124da565b9150509250929050565b6000806040838503121561257b5761257a611f64565b5b600061258985828601612044565b925050602061259a85828601612245565b9150509250929050565b6125ad81612224565b82525050565b60006040820190506125c86000830185612003565b6125d560208301846125a4565b9392505050565b600080600080606085870312156125f6576125f5611f64565b5b600085013567ffffffffffffffff81111561261457612613611f69565b5b612620878288016120cb565b9450945050602061263387828801612044565b925050604061264487828801612245565b91505092959194509250565b600082825260208201905092915050565b7f4f776e61626c653a2063616c6c6572206973206e6f7420746865206f776e6572600082015250565b6000612697602083612650565b91506126a282612661565b602082019050919050565b600060208201905081810360008301526126c68161268a565b9050919050565b600081905092915050565b60006126e483856126cd565b93506126f1838584612489565b82840190509392505050565b600061270a8284866126d8565b91508190509392505050565b60006127228385612650565b935061272f838584612489565b612738836123cc565b840190509392505050565b6000602082019050818103600083015261275e818486612716565b90509392505050565b7f46756e6374696f6e206d7573742062652063616c6c6564207468726f7567682060008201527f64656c656761746563616c6c0000000000000000000000000000000000000000602082015250565b60006127c3602c83612650565b91506127ce82612767565b604082019050919050565b600060208201905081810360008301526127f2816127b6565b9050919050565b7f46756e6374696f6e206d7573742062652063616c6c6564207468726f7567682060008201527f6163746976652070726f78790000000000000000000000000000000000000000602082015250565b6000612855602c83612650565b9150612860826127f9565b604082019050919050565b6000602082019050818103600083015261288481612848565b9050919050565b6000819050919050565b600060ff82169050919050565b6000819050919050565b60006128c76128c26128bd8461288b565b6128a2565b612895565b9050919050565b6128d7816128ac565b82525050565b60006020820190506128f260008301846128ce565b92915050565b7f555550535570677261646561626c653a206d757374206e6f742062652063616c60008201527f6c6564207468726f7567682064656c656761746563616c6c0000000000000000602082015250565b6000612954603883612650565b915061295f826128f8565b604082019050919050565b6000602082019050818103600083015261298381612947565b9050919050565b600060608201905061299f6000830186612003565b6129ac6020830185612003565b6129b960408301846125a4565b949350505050565b6129ca81612086565b81146129d557600080fd5b50565b6000815190506129e7816129c1565b92915050565b600060208284031215612a0357612a02611f64565b5b6000612a11848285016129d8565b91505092915050565b60006040820190508181036000830152612a35818587612716565b9050612a4460208301846125a4565b949350505050565b7f4f776e61626c653a206e6577206f776e657220697320746865207a65726f206160008201527f6464726573730000000000000000000000000000000000000000000000000000602082015250565b6000612aa8602683612650565b9150612ab382612a4c565b604082019050919050565b60006020820190508181036000830152612ad781612a9b565b9050919050565b600081519050919050565b600082825260208201905092915050565b60005b83811015612b18578082015181840152602081019050612afd565b60008484015250505050565b6000612b2f82612ade565b612b398185612ae9565b9350612b49818560208601612afa565b612b52816123cc565b840191505092915050565b600081519050919050565b600082825260208201905092915050565b6000612b8482612b5d565b612b8e8185612b68565b9350612b9e818560208601612afa565b612ba7816123cc565b840191505092915050565b60006040830160008301518482036000860152612bcf8282612b24565b91505060208301518482036020860152612be98282612b79565b9150508091505092915050565b6000604082019050612c0b60008301856125a4565b8181036020830152612c1d8184612bb2565b90509392505050565b600081519050612c3581611f78565b92915050565b600060208284031215612c5157612c50611f64565b5b6000612c5f84828501612c26565b91505092915050565b7f45524331393637557067726164653a206e657720696d706c656d656e7461746960008201527f6f6e206973206e6f742055555053000000000000000000000000000000000000602082015250565b6000612cc4602e83612650565b9150612ccf82612c68565b604082019050919050565b60006020820190508181036000830152612cf381612cb7565b9050919050565b7f45524331393637557067726164653a20756e737570706f727465642070726f7860008201527f6961626c65555549440000000000000000000000000000000000000000000000602082015250565b6000612d56602983612650565b9150612d6182612cfa565b604082019050919050565b60006020820190508181036000830152612d8581612d49565b9050919050565b7f496e697469616c697a61626c653a20636f6e747261637420697320616c72656160008201527f647920696e697469616c697a6564000000000000000000000000000000000000602082015250565b6000612de8602e83612650565b9150612df382612d8c565b604082019050919050565b60006020820190508181036000830152612e1781612ddb565b9050919050565b7f496e697469616c697a61626c653a20636f6e7472616374206973206e6f74206960008201527f6e697469616c697a696e67000000000000000000000000000000000000000000602082015250565b6000612e7a602b83612650565b9150612e8582612e1e565b604082019050919050565b60006020820190508181036000830152612ea981612e6d565b9050919050565b7f6368617269747920646f6573206e6f7420657869737400000000000000000000600082015250565b6000612ee6601683612650565b9150612ef182612eb0565b602082019050919050565b60006020820190508181036000830152612f1581612ed9565b9050919050565b7f446f6e6174696f6e20616d6f756e74206d75737420626520677265617465722060008201527f7468616e207a65726f0000000000000000000000000000000000000000000000602082015250565b6000612f78602983612650565b9150612f8382612f1c565b604082019050919050565b60006020820190508181036000830152612fa781612f6b565b9050919050565b7f4e487b7100000000000000000000000000000000000000000000000000000000600052603260045260246000fd5b7f4e487b7100000000000000000000000000000000000000000000000000000000600052601160045260246000fd5b600061301782612224565b915061302283612224565b925082820190508082111561303a57613039612fdd565b5b92915050565b600061304b82612224565b91507fffffffffffffffffffffffffffffffffffffffffffffffffffffffffffffffff820361307d5761307c612fdd565b5b600182019050919050565b7f746f427974657333325f6f75744f66426f756e64730000000000000000000000600082015250565b60006130be601583612650565b91506130c982613088565b602082019050919050565b600060208201905081810360008301526130ed816130b1565b9050919050565b7f746f416464726573735f6f75744f66426f756e64730000000000000000000000600082015250565b600061312a601583612650565b9150613135826130f4565b602082019050919050565b600060208201905081810360008301526131598161311d565b9050919050565b7f455243313936373a206e657720696d706c656d656e746174696f6e206973206e60008201527f6f74206120636f6e747261637400000000000000000000000000000000000000602082015250565b60006131bc602d83612650565b91506131c782613160565b604082019050919050565b600060208201905081810360008301526131eb816131af565b9050919050565b7f416464726573733a2064656c65676174652063616c6c20746f206e6f6e2d636f60008201527f6e74726163740000000000000000000000000000000000000000000000000000602082015250565b600061324e602683612650565b9150613259826131f2565b604082019050919050565b6000602082019050818103600083015261327d81613241565b9050919050565b600081905092915050565b600061329a82612b5d565b6132a48185613284565b93506132b4818560208601612afa565b80840191505092915050565b60006132cc828461328f565b915081905092915050565b60006132e282612ade565b6132ec8185612650565b93506132fc818560208601612afa565b613305816123cc565b840191505092915050565b6000602082019050818103600083015261332a81846132d7565b90509291505056fe416464726573733a206c6f772d6c6576656c2064656c65676174652063616c6c206661696c6564a2646970667358221220bb1cfe863ced6aa9d30acd374c712901701e97593370a9ed7875b9d8fb615a1f64736f6c63430008110033",
  "linkReferences": {},
  "deployedLinkReferences": {}
}